:1000000000308A00622800003508F8013402031825
:100010000C283408F7001828F7010830B600B40D92
:10002000F70D350877020318F700F80DB60B0F2807
:100030000800BA013A08073C031C382839088039FF
:10004000F700770DF701031877147708031D2A28A6
:1000500008102B28081483160810881083128810A3
:1000600083168810831288140310B90DBA0A1A284F
:1000700008003508B90019203608B90019203708DA
:10008000B90019203808B900192083160811831205
:1000900008118316081183120815080032308400F5
:1000A00083130008031961280630F800F701F70BE5
:1000B0005728F80B56287B30F700F70B5D28800B8C
:1000C0005428080003081F398300FF30B00083164E
:1000D00003170908C039890003131F129F1200304B
:1000E0000317880083128701880189018313C030B8
:1000F0000313A600F930A700A430A800B030A9006F
:100100009930AA009230AB008230AC00F830AD00DC
:100110008030AE009030AF0000308316880087003A
:100120008312B0000030B0008316870111308312B3
:1001300087001A30A0001D30A1002008B4000A304A
:10014000B500042026307807840083130008B1002E
:100150002008B4000A30B500042026307707840058
:1001600083130008B2002108B4000A30B50004204F
:1001700026307807840083130008B3002108B400F8
:100180000A30B50004202630770784008313000866
:10019000B4003108B5003208B6003308B70034089F
:1001A000B80039200430B100FA30B2004E20B10B53
:1001B000D428A003A103200F9D280030B00083168F
:1001C00087011430831287000230A0002008B40099
:1001D0000A30B50004202630780784008313000815
:1001E000B1002008B4000A30B5000420263077079B
:1001F000840083130008B2002108B4000A30B5005F
:10020000042026307807840083130008B3002108F7
:10021000B4000A30B5000420263077078400831329
:100220000008B4003108B5003208B6003308B70042
:100230003408B80039200430B100FA30B2004E2042
:10024000B10B1D29A003A103200FE6280030B00048
:10025000831687010A30831287001D30A0001A30F0
:10026000A1002008B4000A30B50004202630780729
:10027000840083130008B1002008B4000A30B500E0
:10028000042026307707840083130008B200210879
:10029000B4000A30B50004202630780784008313A8
:1002A0000008B3002108B4000A30B500042026304D
:1002B0007707840083130008B4003108B5003208C2
:1002C000B6003308B7003408B80039200430B10054
:1002D000FA30B2004E20B10B6829A003A103210F10
:1002E00031290030B0008316870122308312870045
:1002F0000230A1002008B4000A30B50004202630E6
:100300007807840083130008B1002008B4000A3085
:10031000B500042026307707840083130008B2005C
:100320002108B4000A30B500042026307807840084
:1003300083130008B3002108B4000A30B50004207C
:1003400026307707840083130008B4003108B50015
:100350003208B6003308B7003408B800392004303A
:10036000B100FA30B2004E20B10BB129A003A103B5
:08037000200F7A299228630096
:04400E00E22FFF3F5F
:00000001FF
;PIC16F887
;CRC=BC75  CREATED="06-May-24 11:56"
